:040000006F108042BB
:100004000000000000000000E2030000E403000020
:1000140000000000261400000000000000000000A2
:100024002614000026140000000000000000000058
:100034002614000000000000261400000000000048
:1000440026140000261400002614000026140000C4
:1000540026140000261400002614000026140000B4
:1000640026140000261400002614000026140000A4
:100074002614000026140000261400002614000094
:100084002614000026140000261400002614000084
:100094002614000026140000261400003604000074
:1000A4002614000026140000261400002614000064
:1000B40092040000261400002614000026140000F8
:1000C4002614000026140000261400002614000044
:1000D4002614000026140000261400002614000034
:1000E4002614000026140000261400002614000024
:1000F4002614000026140000261400002614000014
:10010400000000002614000026140000261400003D
:1001140026140000261400002614000026140000F3
:1001240026140000261400002614000026140000E3
:10013400261400008A04000026140000261400007F
:1001440026140000261400002614000026140000C3
:1001540026140000261400002614000026140000B3
:1001640026140000261400002614000026140000A3
:100174002614000026140000261400002614000093
:100184002614000026140000261400002614000083
:100194002614000026140000261400002614000073
:1001A400000000000000000000000000000000004B
:0C01B4000000000000000000000000003F
:1001C000397101436EC619A0397141536AC866CAB4
:1001D00062CC5ECE19A0397101535AD056D252D496
:1001E0004ED64AD826DA22DC06DE3301614082820E
:1001F00041114AC026C222C406C68282B24D4101C4
:10020000024D924C224CB24B4101024B924A224A7F
:10021000B2494101024992442244B24041018280E4
:100220003D432A876373C3029377F700BDEFADE5C3
:10023000937606FF3D8ABA960CC34CC30CC74CC7D5
:100240004107E36BD7FE11E28280B306C3408A0602
:100250009702000096966780A6002307B700A306C2
:10026000B7002306B700A305B7002305B700A30412
:10027000B7002304B700A303B7002303B700A3020A
:10028000B7002302B700A301B7002301B700A30002
:10029000B7002300B700828093F5F50F9396850091
:1002A000D58D93960501D58D61B79396270097025A
:1002B000000096968682E78086FA9680C1171D8F89
:1002C0003E96E374C3F8A5B73367B500FD530D8BB5
:1002D00079E7B7877F7F9387F7F710419441B3722F
:1002E000F6003363F600BE92B3E262006395720CCF
:1002F0006318D6065041D441B372F6003363F6005A
:10030000BE92B3E262006396720A631BD604104584
:100310009445B372F6003363F600BE92B3E2620016
:10032000639F7208631ED6025045D445B372F6002F
:100330003363F600BE92B3E2620063987208631101
:10034000D60210499449B372F6003363F600BE92A8
:10035000B3E26200639172085105D105E30FD6F64E
:100360001317060193970601631CF7001357060144
:1003700093D706013305F7409375F50F91E9828015
:100380004183C1833305F7409375F50F91E1828076
:100390001377F70F93F7F70F3305F740828010219B
:1003A0009421050585056313D60075FA3305D640FB
:1003B000828011059105E314D6FE01458280210556
:1003C000A105E31ED6FC014582803105B105E31885
:1003D000D6FC014582804105C105E312D6FC0145EA
:1003E000828001A03795000013050533EF7050633C
:1003F000EF10706FAA853795000013054534EF7034
:10040000705DEF10B06EAA85379500001305453575
:10041000EF70505CEF10F06DAA8537950000130562
:100420004536EF70305BB707EFBE37E700E09387E4
:1004300007083CC701A0397106DE16DC1ADA1ED89F
:100440002AD62ED432D236D03ACE3ECC42CA46C874
:1004500072C676C47AC27EC0EF10900913050008F8
:10046000EF102022F250E2525253C2533255A2559D
:10047000125682567247E2475248C248324EA24E46
:10048000124F824F216173002030EF10F03773005C
:1004900020302945EF104079854537050040EF10A1
:1004A000206273002030EFF2BFD12E84B795000098
:1004B00001119385C53D2A89B284393521E1B7956B
:1004C00000009385453E2285013511E92685EF70B0
:1004D000D059B7070020239AA734056105B3B79513
:1004E00000009385053F2285C53365F92685EF70A9
:1004F000D057B7070020239BA734C5B7B795000096
:10050000938505404A85C933631E051CB7950000D5
:100510009385854022854D3B19E92685EF70F0547F
:10052000B717002093874735238CA7E27DB7B7958F
:100530000000938505412285413B19E92685EF702E
:10054000D052B717002093874735A38CA7E271B725
:10055000B7950000938505422285BD3319E92685AC
:10056000EF70B050B7170020938747352398A7E462
:10057000ADB7B7950000938585422285B13331E54B
:1005800037990000930549432685EF70D06F3704F3
:100590000020AA89EF70704D1307443585673E9798
:1005A0002300A7E413044435938407E40504E38699
:1005B00009F2930549430145EF70F06CAA89EF7089
:1005C000D04AB307940088A3D5B7B79500009385A8
:1005D00085432285D53931E5379900009305494394
:1005E0002685EF70506A37040020AA89EF70F04723
:1005F0001307443585673E972302A7E41304443567
:10060000938447E40504E38A09EC930549430145D3
:10061000EF707067AA89EF705045B307940088A304
:10062000D5B7B7950000938545442285713931E5EA
:1006300037990000930549432685EF70D06437044D
:100640000020AA89EF7070421307443585673E97F2
:100650002304A7E413044435938487E40504E38E5C
:1006600009E6930549430145EF70F061AA89EF70EF
:10067000D03FB307940088A3D5B7B7950000228573
:100680009385C54491312A84E31905E4B7950000A8
:100690007C009308410113080101380054000A86C8
:1006A000938505452685EF70305199476315F5020E
:1006B0000566B70600208A871306A6E393864635AB
:1006C000994588433307C400369708A3050491076A
:1006D000E319B4FE19B53795000013050547EF700F
:1006E0003034E5BBB79500009385C5484A85E93E9F
:1006F000AA89631D050EB79500009385854922855B
:1007000037090020D1361309493511E52685EF70E8
:10071000D0352302A900379C0000B79C0000379D0C
:100720000000130BC002B70B0020B79D000093051B
:100730000C4A4E860A85EF70302C8A8522856936F0
:1007400009E5930589002685392C9385CC4A4E8688
:100750000A85EF70702A8A852285BD3609E59305E2
:1007600009012685092493058D4B4E860A85EF7075
:10077000B0288A852285893E0DE5130A8901130672
:10078000D002A6855285EF70D04D5285EF7090490A
:1007900023A0A1863306AB4093850B225285EF70D0
:1007A000904993858D4C4E860A85EF70F0248A859A
:1007B0002285193E0DE5130A59041306D002A685B9
:1007C0005285EF70104A5285EF70D04523A0A18664
:1007D0003306AB4093850B225285EF70D0458509D7
:1007E00091471309C906E394F9F4C5B9B795000018
:1007F0009385854D4A85C93CAA89E31005CEB795F6
:10080000000093858549228537090020753C13092E
:10081000493511E52685EF705025A302A900B79C44
:100820000000379D0000130BC002B70B0020B79DDE
:100830000000130C000293850C4E4E860A85EF7063
:10084000B01B8A852285493409E59305891B2685D5
:10085000192A9305CD4E4E860A85EF70F0198A85C8
:1008600022859D340DE5130A091C1306D002A685C6
:100870005285EF70103F5285EF70D03A23A0A186C9
:100880003306AB4093850B225285EF70D03A9385A7
:100890000D504E860A85EF7030168A8522852D34DC
:1008A0000DE5130AD91E1306D002A6855285EF70F6
:1008B000503B5285EF70103723A0A1863306AB4022
:1008C00093850B225285EF7010378509130949066D
:1008D000E39389F719B1EFF2BF91B70400200564E3
:1008E0004111130644E5814513854435EFF05F93CC
:1008F00013894435B7373070938727203305240197
:1009000019462C003EC41305A5E3930700107C860E
:10091000EF70101B3795000013054537EF7050102E
:10092000B705000025659385654A13054551FD2AE5
:10093000834549003795000013054539EF7090094C
:1009400083455900379500001305C53AEF709008AC
:1009500083D54435379500001305453CEF7090076B
:1009600041016FF03F8B63020512EFF2DF86AA842C
:100970002E89EF70302B0947FD576378A70A296449
:1009800013044498930984030C402685EFF0DF9309
:10099000630005101104E31934FF03840400EF70B1
:1009A000900D894622951C3122878D8B6393D70049
:1009B000011793060005F5576319D7060384140041
:1009C000EF70700B894622951831A2870D8B631446
:1009D000D700930704FE1385240013948701EF705A
:1009E000D0083D476184AA84F1576360A704930748
:1009F000F4FB93F7F70F11476360F70829678A073D
:100A00001307C792BA979C438287B7170140938711
:100A100007802320F90085451145EF00906D0545BD
:100A2000331595002312A90081473E856FF0EFFD35
:100A3000B7170140938707C02320F900854521455A
:100A4000E9BFB71701402320F90085454145F1B7BB
:100A5000B7170140938707402320F9008545130508
:100A6000000265BFB7270140938707802320F90064
:100A700085451305000455B737A50000A285130569
:100A80000594EF702075ED574DB7FD573E85828078
:100A900037A50000A68513050596EF70A073F957DA
:100AA00069B7EFF2EFF4011193078004EC823ECEB8
:100AB0004C088D473ECCEF00703D05616FF08FF51F
:100AC000EFF20FF3C2054111C181EF00304841013F
:100AD0006FF04FF4EFF2CFF1AA842A84EF70A0797F
:100AE000830704003E951C31A18B9DE32285EF70A6
:100AF000701313061500A2852685EF7090072685D2
:100B0000EF7050123384A400639684006FF08FF06E
:100B10000504E9B7EF7020768307F4FF7D143E9556
:100B20001C31A18BE5D723000400F9BFEFF2AFEA37
:100B30002D712A84AE8971468145480002C0294939
:100B4000EFF00FEE130AF00F930AB00383070400CF
:100B5000A5E715616FF06FEB1410BE9698A285079C
:100B6000B304F4000387040009C763042701E39575
:100B700047FF1412B697238007F0631327018504FB
:100B80000810893F8307010295C763855703130740
:100B9000B0056395E7029305D0050810EF701007C4
:100BA00011C92300050013060002930511020A85EE
:100BB000EF70300B268459BF81475DB79305D00392
:100BC0000810EF70B0047DD5130415002300050054
:100BD000081009372285FD3D22860C100A8582996E
:100BE000D1BFEFF2EFE01304C00633048502B7076C
:100BF0000020938747353E944C440844D135AA845D
:100C00004C480848B334900086045D3D3335A0005D
:100C1000458D6FF02FE001CDEFF28FDDAA8537A56E
:100C200000001305C5B2EF70E05A6FF0AFDE8280AE
:100C3000EFF20FDC41118545054502C202C42316BF
:100C40000100EF00F04C83A7C18137470F00130765
:100C50000724B3D7E7024C003705004023150100F5
:100C60007C8489679387F7703EC2EF007055054614
:100C7000854537050040EF00306285453705004067
:100C8000EF001060854537050040EF007063B7E75F
:100C900000E0056723A2E71041016FF0AFD781475D
:100CA0009386418011463387F5001823B308F50079
:100CB00083C808001347F7FF3388F600336717012E
:100CC0002300E8008507E390C7FE8280EFF24FD251
:100CD00041119307D0023EC603D7818003C5A18688
:100CE000B705002070009386418093850500EF10C2
:100CF000106341016FF00FD2EFF2EFCD2A8937A5D3
:100D000000000111130545AFAE84B289368A3AC698
:100D10000144EF70204C37AB0000914A7C08A29749
:100D200084A393F5F40F13050BB00504EF70804A0C
:100D3000A180E31554FF83264900324637A5000001
:100D4000CE85130545B0EF70E048034549007408AF
:100D500070004E87D285EF10905C8D3F05616FF07B
:100D6000CFCAEFF2EFC839711306800381454800FE
:100D7000EFF00FCB83D781819384A1863ED689473C
:100D80003ED09307005C3EC8938781783EC6B71774
:100D90000000938787CF4C001385A1863EDEEF10BD
:100DA000103B8C202A8437A50000130545AEEF7058
:100DB000604222858D3521616FF0CFC5EFF2AFC162
:100DC0003709002093074935CC3337A500001305B8
:100DD00005A137140020EF70E03F130484768149A9
:100DE00013094935130A40068347590063C4F900C3
:100DF0006FF0AFC1B384490321048509CA9403A5E8
:100E0000841B83A5C41B713983A5C41B03A5841B44
:100E10004539230CA4FEDD23232EA4FEF1B7EFF207
:100E20002FBA3709002037140020930949351304DD
:100E300084768144130B4935130C4006B7AC00008F
:100E4000370A0020B7AB000037AD0000B7AD000097
:100E500083475B0063C4F4006FF04FBAB387840329
:100E6000DA9703A5871B83A5C71B99391C20AA8A7B
:100E7000638EA70461235C401D8D835749356367EA
:100E8000F5045686A68513850CA3EF70A0342300C5
:100E90005401AD2348C063900A04938A091C568606
:100EA000A68513858DA4EF70E0321306D002D68597
:100EB00013050A00EF70C04013050A00EF7080565A
:100EC000AA8513850BA6EF70E03009358504938958
:100ED00049062104B5BF938AD91E5686A6851305F7
:100EE0008DA7D1B7EFF22FAFB7090020938749350F
:100EF000CC2337A50000130545A937240020EF7047
:100F0000602D13048486014993894935130AC0066C
:100F100083C749006344F9006FF02FAFB30449035E
:100F20002104CE948844CC44AD3ECC488848953EBC
:100F30004A854539230CA4FED121232EA4FE0509A0
:100F4000C1BFEFF2EFA73724002037090020A96ABC
:100F5000411113048486930949358144938A8AC4D4
:100F6000054CFD5C37AD0000370A0020B7AB000030
:100F7000B7AD0000B707002093874735DC2363C572
:100F8000F40041016FF08FA72685A1391C202A8B20
:100F90003EC66303F5069D215840198D0357493518
:100FA000636CE504B2478A07B3E7670193F7F70F6D
:100FB000D6978387070063968705938789013E86C6
:100FC0003EC6A68513858DABEF70C020B2471306D1
:100FD000D00213050A00BE85EF70802E13050A00AB
:100FE000EF704044AA8513850BA6EF70A01EF93957
:100FF00023006401212148C0850421049389C90686
:1010000095BFE39797FF938759043E863EC6A68512
:101010001305CDAC55BFEFF22F9BB524EF10601731
:10102000716513050520EF10E01F37A500001305BB
:10103000C5B3EF70E01E83A5C18137A5000013057D
:1010400085B6EF7020198529AA8537A500001305FC
:1010500005B8EF702018EF107009AA8537A50000B9
:10106000130585B9EF700017EF105008ED476308BE
:10107000F50037A50000130505BBEF70601A4D3E63
:10108000052EEFF05F85B71700209387473503A73C
:1010900007E423A8E18003A747E483D6A7E323AAB4
:1010A000E18003A787E4938A018123A6E180138767
:1010B000418616A383D6C7E383D7E7E32E8B36A3F7
:1010C0005EA3938941868147014799463386F9009B
:1010D000102285073297E39BD7FE09E713854186E7
:1010E000EF00903237A50000130585BCEF70800E2D
:1010F000014937AC0000994BB38729018C231305B4
:10110000CCBD0509EF70000DE31879FF379500009D
:1011100013058548EF70C010F1334D319386418639
:10112000138641819385C18013850181EF00907EF4
:10113000AA84EFF05FAE99E437A50000130505BE61
:10114000EF70000E9385418113850181EFF03FB56B
:1011500093874180B833B42390338C2337A50000A4
:10116000130505C0EF700007ED3E03C73A0083C6C4
:101170002A0003C61A0083C50A0037A5000013051C
:1011800085C2EF70200561396D3BF5BFB71702408E
:101190009843B706FFF041111367170098C3D8436F
:1011A00037060200758FD8C39843B706F7FEFD16C1
:1011B000758F98C39843B706FCFFFD16758F98C3CB
:1011C000D843B70601FFFD16758FD8C39843B706FD
:1011D00000ECFD16758F98C33707FF0098C723A64C
:1011E000070202C402C69843C166558F98C3B7165A
:1011F000024005679C42F18F3EC6A24785073EC468
:10120000B24781E7A247E397E7FEB71702409C4346
:101210001397E7006357070685473EC63247854761
:10122000631FF704B7170240D843B706C1FFFD1686
:10123000D8C3D843D8C3D84313670740D8C3D843CB
:10124000758FD8C3D843B7062900558FD8C39843A4
:10125000B7060001558F98C3984393166700E3DDE6
:1012600006FED843B7160240719BD8C3D843136714
:101270002700D8C32147DC42B18BE39EE7FE410142
:10128000828002C661BFB7160240D8421146318B38
:101290009387C1816305C70021466308C7023717DA
:1012A0007A001307072098C3371702405843118369
:1012B0009376F700370700201307070336971423A8
:1012C00098433357D70098C38280D842D4424166AE
:1012D00049833D8BF18E1306270015CF3D47630FE1
:1012E000E6024147630FE602454781456313E60086
:1012F0004146A1E23747024003270780418B0DC7D3
:1013000037177A00130707203306C70290C3C9DDD9
:101310009843058349BF81454946E1BF8545354628
:10132000C9BF81453D46F1B737173D001307079008
:10133000E1BF3715024058559316F700585563DF43
:10134000060411833D8B9306170037177A001307A5
:1013500007203357D70298C35455A182BD8A8DE226
:1013600095463307D702058398C33717024058576D
:1013700094433D8B050733D7E60298C3984369B77A
:1013800005456394A600E546E9BF3D456396A60082
:10139000D1463387E602C9BF8906E5BF3D8B930678
:1013A000170037177A00130707203357D702F1B712
:1013B000EFE21FE4411185450945992B4800752549
:1013C00083A7C1811567130707E2B3D7E702370484
:1013D00000404C001305044023130100FD177C82DC
:1013E000A5473EC4F12B130504408545E1258545FD
:1013F00013050440712541016FE0DFE1EFE25FDF9B
:10140000B704004085451385044045251384C186F3
:1014100001C9854513850440712D1C4085071CC0FA
:1014200008406FE03FDF01A097F1FF1F9381815FCC
:1014300017F10020130101BD179500001305C5A287
:1014400097F5FF1F938505BC1386018663FAC500D7
:101450008322050023A0550011059105E3EAC5FE8E
:101460001385018697550020938585346377B500F1
:10147000232005001105E36DB5FEFD42739002BC0B
:10148000AD4273904280B7620000938282087390ED
:10149000023097F2FFFF938222B793E232007390FB
:1014A0005230EFF0BFCE97020000938202B77390E4
:1014B000123473002030B7F7FF1F03A547708280F6
:1014C000EFE21FD385451165E92981451165D129D1
:1014D0006FE05FD4411102C6B78602409C4A416763
:1014E0002E057D17F18B798D9A055D8D93F5057C21
:1014F000C98D93E51500B70750008CCAF91732471C
:1015000005073AC6984A058B01C73247E3F9E7FE5B
:101510003247B7075000FD1701456307F700B7874B
:101520000240C84B42054181410182804111B78789
:10153000024002C6984BC166FD162E05758D718B53
:101540009A05598D93F5057CC98DD0CB93E535006F
:101550008CCBB7070500B7860240F917324705075D
:101560003AC6984A058B01C73247E3F9E7FE324590
:10157000B7070500FD173335F5004101828023AA26
:10158000A1862A878147B70810401303405F130ED6
:10159000F6FF6396C700B797024088CB8280B38678
:1015A0006702232017012A88AE9614C79306070105
:1015B00063F3C70136882326070185073687D1BF25
:1015C000916623A8A1860147AA87370300809386E6
:1015D000465F130E405F930EF6FF6316C700B79782
:1015E0000240C8C782803308C70323A06700D4C362
:1015F000AA882E9823A40701138807016373D701D3
:10160000C28823A617010507C287C1BF37970240CA
:101610001C4393E717001CC38280B7970240C8CBD6
:101620008280379702401C4FB7061000D58F1CCF21
:101630008280EFE2FFBB378402401C4093E78700C3
:101640001CC0C5371C40896693E747001CC0B7978C
:101650000240984F558F98CF984F1367270098CF27
:101660006FE05FBB99C5379702405C4F5D8D48CFF7
:101670008280B7970240D84F1345F5FF798DC8CFC8
:101680008280B707014023AAA74082809C4513F7B8
:10169000070113F8F70001C7D8413368E8008E212D
:1016A00013F7F50F39C318418146854E3D4F930F0F
:1016B000800293028004214E3396DE00B3F8C50009
:1016C000631116039398260033131F011343F3FF8E
:1016D0003377E300B318180133E7E800639FF70599
:1016E00050C98506E39AC6FD18C11307F00F63754C
:1016F000B70454412146854E3D4F930F800293021B
:101700008004414EB398CE0033F715016392E8028E
:101710001317260001173313EF001343F3FFB376BB
:10172000D3003317E800D98E639DF701232A1501F2
:101730000506E319C6FD54C18280E39457FA10C927
:101740004DB7E39757FE23281501DDB708456D8D8A
:101750003335A00082800CC982804CC98280371743
:1017600002405C439146B18B6385D700A1466382FA
:10177000D706B7177A00938707201CC13716024097
:101780005C4237070020130707049183BD8BBA978B
:1017900094231C41B3D7D7005CC15442A1829D8AD7
:1017A000BA969422B3D6D70014C55442AD829D8A0E
:1017B00036971823B3D7E7005CC558423983937630
:1017C00037001387018236971823B3D7E7021CC965
:1017D00082805C435843C166C983758FB7F6FF1F8B
:1017E00083A6C670BD8B8907139616016348060051
:1017F000C54601466392D702C94739A88946638F17
:10180000D702BD46638ED702C146638ED702C54656
:1018100001466393D700C1471DEF374702400327B6
:101820000780418B05C737177A0013070720B307D6
:10183000F7021CC121D61C41858381B701466DBFCB
:101840000546B547D1BF0146BD47F9B737173D003B
:1018500013070790E9BFB7150240D8559316F70054
:10186000D85563DF060411833D8B930617003717A5
:101870007A00130707203357D70218C1D455A18225
:10188000BD8A8DE295463307D702058318C1371705
:101890000240585714413D8B050733D7E60218C163
:1018A000184171B785456394B600E546E9BFBD456B
:1018B0006396B600D1463387E602C9BF8906E5BF05
:1018C0003D8B9306170037177A001307072033570D
:1018D000D702F1B799C5371702405C4B5D8D48CBF5
:1018E0008280B7170240D84B1345F5FF798DC8CBDE
:1018F000828099C5371702401C4F5D8D08CF8280CA
:10190000B7170240984F1345F5FF798D88CF828035
:1019100099C5371702405C4F5D8D48CF8280B7175D
:101920000240D84F1345F5FF798DC8CF8280935779
:10193000550005476399E700B71702409C4333D52C
:10194000A7000589828009476396E700B717024020
:101950009C53F5B7B7170240DC53D5B73717024091
:101960005C5793F7F7F05D8D48D78280B716024039
:10197000DC5645777D17F98F5D8DC8D6828009C901
:10198000371702401C43B7060010D58F1CC3828056
:10199000B71602409C42370700F07D17F98F9CC2B2
:1019A000828099C5371702401C575D8D08D7828009
:1019B000B717024098571345F5FF798D88D7828075
:1019C0001E2137370140930607C0C207C183630059
:1019D000D504B7060040630CD50293860640630821
:1019E000D502B7160040138606806302C5029386AF
:1019F00006C0630ED50013070740630AE50037579A
:101A00000140930607C06304D5006316E500BA21C0
:101A100093F7F7F8D98F37170040630CE5001307E9
:101A200007406308E50093F7F7CFFA21C207C183A7
:101A3000D98F1EA1DE215EB59E211EB5B7370140AC
:101A4000138707C0630EE50093870740630AF5001C
:101A5000B7570140138707C06304E5006314F5001E
:101A60009C251EB985475EA98280FD575EA1231083
:101A700005002313050023110500230405008280BF
:101A80001E2189C593E717001EA18280C207C1836A
:101A9000F99BC207C183CDBF5E2501C6DD8D4EA572
:101AA000828093C5F5FFFD8DDDBF0A296D8D33352D
:101AB000A000828093C5F5FFC205C1810EA9828076
:101AC00093C5F5FFC205C1810EA98280EFE24FF2F6
:101AD0001629F577FD17F58FF621DA257971D58F5F
:101AE0001EA95625FD779387379FF58FD6212A8427
:101AF0002EC6D58F9625D58FB625D58F5EA55E29A6
:101B0000C207C18393F7F7CFD98F5EA96808EFF0BA
:101B10001FC5B747014093870780B245631EF40293
:101B2000A2576547B387E7029841930640060A0724
:101B3000B3D7E70233D7D702B3F7D702120792071A
:101B400093872703B3D7D702BD8BD98FC207C18331
:101B50001EA445616FE00FEC9257E1B791C55E2579
:101B60000967D98F5EA582805A25F977FD17F98F0D
:101B7000D5BF93F5F51F4EA182800A216D8D3335B7
:101B8000A000828083A741879843634B0702984354
:101B9000370600304E05518F98C3984337060080B2
:101BA0004D81518F98C3C8C38CC7379702401146E7
:101BB00050CB23220700DC47054523AAF18682800B
:101BC00001458280EFE2CFE2854789456318F50041
:101BD00037150140EFF03FB86FE0CFE33715014014
:101BE000EFF0BFB7D5BFEFE2AFE08547854563189B
:101BF000F50037150140EFF01FB66FE0AFE1371584
:101C00000140EFF09FB5D5BF37F7FF1F814713079E
:101C1000D77E99463306F7400C223306F500850738
:101C20000CA2E399D7FE82809387018898433A9566
:101C300088C38280EFE2CFDB41118545414502C276
:101C400002C402C6EFF0FFCA8D477C82C1473EC680
:101C50004C008D47371501403EC4EFF03FA3894546
:101C600037150140EFF03FAF854537150140EFF0E4
:101C70009FAE41016FE00FDAEFE28FD701450133EC
:101C80004145E9393565DD310545D5391305D003C1
:101C9000EFF0FFC965DD6FE0EFD7EFE26FD5EF0042
:101CA000E066B78702409843D176FD16758F98C3DA
:101CB0009146A382D18AD843B70600808506558F06
:101CC000D8C303A707101367170023A0E7103787AF
:101CD000024083270710858BEDFF05472382E188AB
:101CE00003A7018823AEE186EFF0BF946FE08FD2A7
:101CF000EFE26FCE1384E1880A208545EFF08FFD77
:101D0000AA840A208145EFF0EFFCAA890A209545B4
:101D1000EFF04FFC93F7440063820710939739016B
:101D200063D6070E2A8993F7040259E5A1CFB78637
:101D300002409C427D771307F77FF98F9CC226856E
:101D4000A93F83A781871307000293F7070F6390CA
:101D5000E7020A201384418A1C20898B99CB114603
:101D6000F945EFF0AFFC03A7018823A0E18A6FE0FB
:101D7000CFC90146F945EFF06FFB1C2093E7170030
:101D80001CA0D5B70A2021668145EFF02FFAA38267
:101D9000018A2383018A238C0188238601880A20F3
:101DA000238201882147238D01882146F94523821A
:101DB000E182EFF0AFF765BF2382018A8DCB0A2065
:101DC000C145EFF02FF11189B786024001E913797F
:101DD000F9018547B7860240630CF9029C4205670A
:101DE00013070780D98F9CC22685453D49B73747E1
:101DF000024083270780ED9B2320F7800547A38CB3
:101E0000E18803A7018823AEE18895B7B786024031
:101E10009C427D771307F77FF98FF1B72685FD2167
:101E2000374702408327078093860188ED9B232054
:101E3000F7800547A38CE188984223AEE18883A709
:101E400081871307000293F7070FE392E7F2938766
:101E5000418A982313761700E30B06F0904293868D
:101E6000018A8C420D8E93053006E3E2C5F023A073
:101E7000060013472700B7960240945298A3C5BDA9
:101E8000EFE20FB73787024023280700544D5C412B
:101E90002E842166D58F14458145D58F5445D58F25
:101EA0005451D58F5455D58FB7061000D58F1CC30C
:101EB000545D1C5DD58F3441D58F7441D58F344529
:101EC000D58F7445D58F3449D58F7449D58F5CC370
:101ED0003C4D1CC77C4D5CC734597C55D58F74591B
:101EE000D58F3451C206D58F1CCF745D3C5DD58F24
:101EF0005CCF0327C50883270508D98F0327450929
:101F0000D98F032785092285D98F379702401CCFA7
:101F1000EFF0CFE12146F9452285EFF02FE10545AD
:101F20006FE04FAFEFE22FAB31718545AA84716549
:101F3000EFF05F9A85472397F188EFF0FFD337479B
:101F400002408327078009641304047193E7470064
:101F50002320F780EFF0CFD61389E188EFF00FEB65
:101F6000B79902407D14420429454180B12409C437
:101F700083A70900858BFDF78355090093070004AB
:101F800037042000130700084800BEC222C93ACD1A
:101F90003ECF02C402C602C802D402D802D002DE7A
:101FA00082C882C482CA82CC82C682C082CE82D0DB
:101FB00082DE02C182D282D882DA82DC02C3C935D3
:101FC000DC30D820B7860240A207D98FBCC2983037
:101FD0009C203785018022075D8FBC208545130535
:101FE000150CC2075D8FBC30E207D98FFCC2B70762
:101FF000020023A886109387070223A6F610EFF0AD
:102000006FE629616FE06FA0EFE28F9EB797024005
:10201000C04B13170401635A0702137704081DC34A
:1020200003A78187C1461377070F6319D700F847C5
:10203000B7060080584714C323A4070013050008FF
:10204000EFF0AFDD2165EFF04FDD9317F40063DAB9
:1020500007029377040489C713050004EFF0EFDB50
:102060009377140081C70545EFF02FDB6358040018
:10207000EFF01FC837050080EFF02FDA4165EFF071
:10208000CFD96FE02F99EFE2AF962A84130540066F
:10209000B92AEFF04FC223ACA186EFF0BFB93C30B4
:1020A00058202285B98F5830B98F3747030013075E
:1020B0001740B387E70237A72600130797ECBA97B4
:1020C00023A4F188853537250020B7450020130467
:1020D000858F09469385452C1305858FEFF02FCA10
:1020E00037250020B7250020930485881D46938559
:1020F000859113058588EFF0AFCC23A8918823AA9A
:1021000081880967B7E700E023A4E710A3860744A6
:102110006FE04F90EFE2CF8D39719307405F3ECA79
:102120009307405B3ECC930740663ECE9307200367
:102130003ED0930730103ED2B727554085073ED496
:10214000B7270000938767BE3ED6B7270000938766
:1021500047BC3ED8B7270000938747B83EDAB75749
:102160003412938787672A8948082EC632C4B684FA
:1021700002DC3EDE152D2A8409E92246B245A686F8
:102180004A85AD2B2A842685FD3D228521616FE09D
:102190006F8883A7C18137177A0013070720B3D749
:1021A000E70293F7F70F2385F18A1307803EB38781
:1021B000E7022394F18A8280B7F700E0D843814692
:1021C000799BD8C303C7A18A3306A70290CBD4CB8F
:1021D00098431367070198C398431367170298C37E
:1021E000D843058B75DF9843799B98C38280B7F7F6
:1021F00000E0D8438146799BD8C303D7818A330650
:10220000A70290CBD4CB98431367070198C3984398
:102210001367170298C3D843058B75DF9843799BE2
:1022200098C38280EFD2DFFC2A84116501118545B5
:102230001105EFF00FEC930700207C823715014069
:102240008D473EC44C00E147130505803EC6EFF0C4
:10225000EFC322C837440140B70708000C08130534
:1022600004803ECC02CA231E0100EFF03F86854564
:1022700013050480EFF09F8E05616FD0BFF9EFD298
:102280009FF5B7440140AE893289014493840480AC
:10229000634524014A856FD05FF7930500042685C6
:1022A000EFF0BF8D7DD9B387890083850700268530
:1022B0000504C205C181EFF0DF8BD9BF138781828E
:1022C0001C43B76600209386C67A3E95636BD500A3
:1022D000B70601209386068063E5A60008C33E8505
:1022E0008280FD57EDBF7325103482807325203422
:1022F0008280732530348280EFD29FEF37650020D3
:102300001305C573EF1080256FD0DFF0EFD25FEEBD
:10231000B76700209387C76CD8573764002088D3ED
:1023200013674700D8D71189930704719C4F130492
:10233000047101CD99C3014582975C4C99C3014555
:1023400082970545A5226FD0FFEC99C3054582977A
:102350005C4CF5DB05458297FDB783A701892320F7
:1023600005009DCB944363DB0600D4479042634550
:1023700006029C4363D4070023A8D18883A7018960
:1023800091650146FD153548B7080080944363D731
:10239000060019C223A8F188014582809443139353
:1023A000060163420304944393F606108DCE9443D2
:1023B00093F606208DCA9443C182ED8EF11614C1A6
:1023C0006371D802944393F6060281EA19C223A8E6
:1023D000F1889C475CC105458280944393F61608BA
:1023E000F5D62320050023A017010546DC4779BF59
:1023F00003A70189B706008014C3584723A8E188C2
:102400008280EFD2FFDE83C7C18B93F7F70F81E79E
:102410008547238EF18A03A701889387C18A09CB58
:1024200098C3B767002083A7077382976FD09FDE9A
:102430000547FDB7B7F7FF1F03D567701375050F85
:102440008280EFD2FFDAB767002083A707730149C4
:10245000B1C783A44187B9C09C4003A984001384F9
:10246000C18A63DB0702F93714408147130600086D
:1024700013083006A168130300036304C500631248
:10248000650203A70188158F6364E80063FBF80009
:102490009C40860785839CC0232004004A856FD01A
:1024A0007FD79840E35A07FE8507C1BF03A701887D
:1024B000B76700209387876488A32391070023923E
:1024C000070098C7A38007008280EFD27FD22A84BA
:1024D0000145E93FB76700209387876411C8054726
:1024E00098B3B7670020094723ACE76E6FD09FD23F
:1024F000A3800700E5BF8280EFD21FCD5C42032A94
:1025000085000329C5000049AA8488239C33B28929
:10251000A2075D8DEF10C0139355650093F5C503B9
:10252000B305B0404E85EF20803B59E5DC44984C24
:1025300003DB8900998F63E4670163180B004E8504
:10254000EF20C04005456FD0BFCB4A9A4E89035655
:10255000A900B30A8A40832B490063F4CA04568653
:10256000DE852285EF50D0558357A9009844330467
:1025700044413E942286B3855B013A85EF50505426
:102580002A9403290900E31409FC4E85EF20003C3E
:102590009C4C80C8DA979CCC9C4093E747009CC039
:1025A00055B72285DE85EF50B0518357A9003E9480
:1025B000E39957FD8044F1B7014571B761CEEFD281
:1025C000BFC0832BC5001C4D035B8600BA8AB3874E
:1025D000FB40368A32892A8463E4670163170B0063
:1025E0004A85EF20A0366FD0BFC11C450449B2898F
:1025F000BE9B03D6A900338C9B4083AC4900637714
:10260000CC066286E6852685EF50904B83D7A900DD
:102610001844B3847441BE942686B3858C013A85F0
:10262000EF50104AAA9483A90900E39409FC4A8553
:10263000EF20C031032884036305080483451A0092
:1026400083470A001448A205DD8D83472A005A8774
:102650005686C207CD8F83453A002285E205DD8D7F
:1026600002981C44232C04001CC8B5BF2685E685AF
:10267000EF50104583D7A900BE94E39687FB04442E
:102680005DB7184C1C4004C85A9793E7470018CC14
:102690001CC091BF828019C93305A040A9679387E8
:1026A00087C71375F50F3E9508218280014582800A
:1026B000EFD21FB49307C003B387F502376400203D
:1026C0001307C4602A89AE841306C003814513042E
:1026D000C460BA973E85EFD0BFB463070900130604
:1026E000C003CA85EF50D03D9305C003B385B40243
:1026F000A2959C459CC9DCC96FD0DFB1EFD2BFADBC
:102700002A8A376500204111AE89B284814561462D
:102710001305456536C6EFD0BFB0B246376400201A
:102720001309C46CB68519461305C900EF5050391A
:102730001146D2851305C46CEF5090381146CE85F2
:1027400013054900EF50D0371304C46CA1E0B7075C
:102750000001FD171CC4814483C7418B63CFF40281
:10276000EF00D06685475CD01567B7670020938778
:10277000076C130707E298C31167130787A9D8C32B
:10278000254798C7014541016FD03FA81146A6854E
:1027900013058400EF50D0327DBF93F5F40F01454F
:1027A000EFF01FF185044DBF1855B75734129387CA
:1027B0008767631AF712EFD21FA21C512A8425459E
:1027C000638B071037690020130640048145130509
:1027D000C96CEFD0FFA4B76400201306C002814586
:1027E00013850471EFD0DFA31306C002A285138501
:1027F0000471EF50F02C9389047103A749014A86B4
:102800009387047125EBA96603D786C5938686C591
:10281000AE222E97CE22F6222E97369793162701B8
:1028200063DD060AD8CBD84B9356E700FD8A89EAC8
:10283000B746F8FFFD16758FB7060500558FD8CB44
:10284000D84B93563701FD8A89EAB746F8FFFD1643
:10285000758FB7065000558FD8CBD84B93166700AD
:1028600063CA0600B70600FEFD16758FB706001492
:10287000558FD8CBD84B9356B70189E6B7060040A1
:10288000558FD8CBA946A388D18A8D462388D18A73
:102890009306C0122399D18AD85311E73727000035
:1028A0001307A735D8D3D44B014513D7E6007D8B4A
:1028B000238AD18A9307C66C98CF13D736017D8BB4
:1028C000130620033307C702D8CF1397660063545B
:1028D00007000947B8C36FD05F93F976FD16758F6F
:1028E0008966558F81B71305F00F82806D45828010
:1028F00003C6418BB76700209386C7600147938763
:10290000C7606317E60081476313F70201458280C1
:1029100003A807036317A80009C50545EDD998A1C9
:10292000828005071377F70F9387C703D9BFD05A63
:102930006319A60019C50545F9D993E707F89CA1C5
:102940008280850793F7F70F9386C60375BFEFD292
:102950009F88376900202300050003C7418B411180
:102960009307C96081441309C96063179700130571
:10297000000241016FD07F899387C70383A647FE7A
:1029800063800618850493F4F40FC5B7B767002079
:1029900083A7C76C6C003EC6EF20A02E114693059E
:1029A000C4026800EF50D0116C004E85EF20402F1C
:1029B0001306C0033386C402B72500009385854FF4
:1029C0004E854A96EF20A02F9547376500206C0072
:1029D000232834031CD01305C573EF00C072A685ED
:1029E0002285EFF0FFCC014569B709476390E70AFC
:1029F000EF40D059AA8963020512930AC402114616
:102A0000D6856800EF50D00B324A370500F0EF0052
:102A10005047337AAA00370500E0EF009046630084
:102A2000AA04B76500209385C5736800EF10800D78
:102A30001DE5B767002083A7C76C12346C004E8574
:102A40003EC6EF4090321DE1D68511466800EF503A
:102A5000300752306C004E85EF40104B39A01234D5
:102A6000938581854E85EF40503001C5EFF0BFC2A0
:102A700009B71306C0033386C402B7250000938547
:102A8000C55B4E854A96EF4010503DBF0D4713057C
:102A90001002E390E7EEEF20F0045C4412346C0087
:102AA0005EB9B767002083A7C76CAA893EC6EF202E
:102AB000202A2A8A11C54E85EF20C05652857DB73F
:102AC0009305C003B385B4024E85CA95EF20E04854
:102AD000B72500004E859385654FEF204048954708
:102AE000A685228523283403232A34031CD0EFF043
:102AF0003FBC376500206C001305C5732925E5B57B
:102B000004A1DC4DC4C12E84E39107EE0345840289
:102B1000EF20401BAA89E31B05E6454599BDEFD28E
:102B20002FEA00422320060055C8AA876945D9C963
:102B30001305C003B387A702376500201305C560DE
:102B4000376A00208144AA9703AB07039307CA6C36
:102B5000BC43130ACA6C898B99E39304700C9307E6
:102B6000005C63F487001304005C931D0401BA8CBD
:102B7000368CB289AE8B93DD0D01130D800C0146AE
:102B8000EE850145EF1070612A8939C948412286D6
:102B9000DE85232E0A02EF50A072E6866286CA8581
:102BA0005A85EF409033AA8A4A85EF10305A83271E
:102BB000CA0399CB8504C204C180EFF0EFF3E39020
:102BC000A4FD4D456FD08FE363D60A005685EFF024
:102BD0009FACCDBF23A089000145EDB76945DDB7A6
:102BE0004545CDB7EFD2CFE0A147AA840021638A43
:102BF000F50263ECB70085476381F50289471364EA
:102C00002400638EF5006FD0EFE0C147638EF500BE
:102C10009307000413640404EDB71364140080C028
:102C2000DDB713648400E5BF48591364040165D916
:102C3000EF20403FEDB7EFD20FDA41119305F100DD
:102C4000AA89A3070100EFF0BFCA15C5848793972F
:102C50008401E18763D407021304C00393F4F407EB
:102C6000B3848402376400201304C4602694232AAA
:102C700004022320040241016FD02FD983C7418B66
:102C8000E3FBF4FE1307C0033387E402B7670020B9
:102C90001384C7601389C7603A94544C0D47E39C72
:102CA000E6FC83A709010547DD1793F7F70F636E6D
:102CB000F700C1452285EFF0FFF29307C003B3840C
:102CC000F402CA9423A804026DB71C2093E70704FA
:102CD0001CC0E5B7B767002003C5C76E8280B76721
:102CE000002003A54772358105898280B7670020DF
:102CF0009387C76C05474111C8CB94DBD0DB8CDFD1
:102D0000D8D741018280B7670020054723A4E77028
:102D10008280EFD2EFCDB767002003A6C77183A6EC
:102D20000183131786016187630C051483C7D18B58
:102D3000614889483388070336980323C800631124
:102D400013150343150083480500032808002203D8
:102D50003363130183482500C20833E368008348C6
:102D60003500E208B3E86800639C0811E207E187D8
:102D70003E856FD02FCAB3885702B69803AEC800FD
:102D8000631A060763180E061398870113588841C3
:102D90008507C207C183E3E0C7FE6317060193F806
:102DA0001500FD57E38608FC8989FD57F1F193175B
:102DB0000801636BC800931703016367C300FD57E5
:102DC000E378C7FA93170701C18361473387E702A6
:102DD000BA9623A6060001CD103118212206598E7D
:102DE00038214207598E38316207518F98C2239893
:102DF00006000DA863147E040DC9834E1500034E12
:102E00000500A20EB3EECE01034E2500420EB36EB6
:102E1000DE01034E3500620E336EDE0183AE080024
:102E20006315DE01A38EF18A91B783D80801E3E12F
:102E3000E8F7139787016187468F99BFE31A8EF4ED
:102E400015C5834E1500034E0500A20EB3EECE014C
:102E5000034E2500420EB36EDE01034E3500620EB6
:102E6000336EDE0183AE0800E30EDEFB83D808017B
:102E7000E3E0F8F31393870113538341C68F09BF2F
:102E80003A883A83814F014F8147E14285430944A3
:102E900019B7EFD24FB498319C21368A22075D8F43
:102EA000BC215441C2075D8FBC31E207D98F639BBF
:102EB000F60089E6D9573E856FD02FB50545EFF06E
:102EC000CFE0CDBFE5DB2E842A89AA852285B28991
:102ED000EF00504365F11C300420370500F0A207D5
:102EE000C58F2420C204C58F2430E204DD8CEF009E
:102EF0004079E98C370500E0EF00A078E38CA4FA74
:102F0000D2852285EFF0FFE0AA87E34605FAE14784
:102F1000B307F50203A501833E9589475CC5232AC3
:102F20002501938759001307950094237D1714B347
:102F30009386F7FF6396F900231805008147A5BF24
:102F4000B687E5B721CDEFD2AFAAC4412A84DC34DD
:102F5000C824A2075D8DEF00C06EA167938707109C
:102F6000938524016304F5009385E400D835DC25BE
:102F700022075D8FFC25C2075D8FFC35E207D98FE4
:102F80005840B98F1844F98F81EB8146138664004D
:102F9000B1052285EFF0FFEF6FD0CFA782806303EA
:102FA0000516EFD24FA33A26930790024111B2893A
:102FB0002E8AAA8463E8E7004E85EF10301941019C
:102FC0006FD0AFA4032946008347D9000345C90049
:102FD00013042901A2075D8DAD25A1679387071012
:102FE0006304F5001304E900834A14001C2005451E
:102FF000A20AB3EAFA00B125E390AAFC834A54007E
:103000005C2013054060A20AB3EAFA001D2DE39587
:10301000AAFA834A34003C200565A20A13050580FC
:10302000B3EAFA00392DE399AAF8930AE4001146AD
:10303000D6856800EF50C028D44013068400ADC286
:10304000183C1C2C22075D8F3C2CC2075D8F3C3C3A
:10305000E207D98F6396F60485466C002685EFF06B
:103060005FE3054B7C306820A2075D8DD92B854737
:10307000630FF5028947E311F5F46C002685EF1024
:103080006029B767002003A74765E30707F2938726
:103090004765DC47E38207F26C002685829729BFEB
:1030A00081466C002685EFF0DFDE014B65BFE3054E
:1030B0000BF00945792368A0218168B01146D685B7
:1030C00013058401EF50C01F1146938544005685B7
:1030D000EF50001F350415099547FD5618207D193E
:1030E0007D1438B4A300E9003307FA001823FD1754
:1030F00018B0A303E900E393D7FE9C4CCE85268548
:1031000082975DBD8280EFD20F8D2A89AE890146FC
:103110009305A0020D45EF1050087D544DC9404164
:10312000AA840545392B48A8218148B89306E902AD
:1031300093075400154793850185138681847D5537
:1031400003C80600FD17FD16A38B07013388E500B1
:1031500003480800A38007033308E600034808007B
:103160007D17A380070103C81600A3830701E31995
:10317000A7FC1146930549001305C401EF50401404
:10318000CE85114613056402EF508013054555297D
:1031900068A48569218168B4138509805D2108A828
:1031A000218108B813054060692928A8218128B821
:1031B0001385698079218327890148A4218148B436
:1031C000A6854A8582972A842685EF102078228555
:1031D0006FD0AF83EFD22F802E8441112A89AA8528
:1031E0002285B289EF00101209C5595541016FD0EF
:1031F000CF811C300420370500F0A207C58F2420A2
:10320000C204C58F2430E204DD8CA529E98C370582
:1032100000E08529E38BA4FC18301C2022075D8F79
:103220003C20C2075D8F3C30E207D98FDDDF85454A
:103230002285EFF01FAEE34B05FAE147B304F50238
:1032400083A70183138A0183A697D84711C77D55A9
:10325000639B0902814A31A00547D8C723AA2701E9
:10326000854AEFF05FAAA2854A85EFF0DFE901ED1C
:1032700083270A000547A697D4476396E600639420
:103280000A002398070083270A00A697D847854796
:103290006316F7002AC6EFF01FA73245E38809F44A
:1032A00083270A000947A697D447E391E6F403A4CD
:1032B0004900138797001306E902930654008D070F
:1032C0000C237D17FD168CB20C227D16ECB2E3198F
:1032D000F7FE056513050580AD268327890148A4FF
:1032E000218148B4CE854A85829709B7EFC2BFEEE7
:1032F000AE8441112A89B94526853284EF10205EBB
:10330000631E0510CA852285EF00C07F6315051076
:103310001C3083490400370500F0A207B3E73701EA
:1033200083492400C209B3E7F90083493400E20964
:10333000B3E9F900B926B3F9A900370500E09126F1
:103340001020143038203C30639CA9081395860067
:10335000518D4207598DE20785456C845D8D93053B
:10336000E0054C85392E41811375F507C885083075
:103370001C2022055D8D3C20C207C98F28306205C4
:103380005D8D01262181488608301C2022055D8D37
:103390003C20C207C98F283062055D8DDD24C886B8
:1033A0003400C04095477D5613075400B385F6009E
:1033B0008C217D170CB3B305F90083C59502FD1769
:1033C0006CB3E395C7FE0565130505809D2C832727
:1033D000890148A4218148B4A6854A8582970DA811
:1033E000A206D18E4207558FE207D98F03274900E5
:1033F000B98F03278900F98F99C78327C9007155B1
:1034000081CB1304C9002686A2854A85EFF09FDC94
:1034100041016FC09FDF9386818461B77955CDBF2D
:10342000EFC21FDD44412A842E89DC34C824A20760
:103430005D8D012CA167938707106317F5009C38F9
:103440008828A2075D8DF52A9307058091CB8567B3
:10345000938767806302F5042285EF10204F15A83B
:10346000A2854A85EFF01FAEDC34C824A2075D8D2B
:10347000C92AA16793870710B9456313F500C945A9
:10348000B305B0402285EF10804579F5CA852285C5
:10349000A92401456FC01FD82286930599024A8549
:1034A000EFF0FFAFFDB7EFC2BFD4B767002093873F
:1034B000C7665CD193075006A309F5029307E0069F
:1034C000230AF502B73700009387C72E5CC9B737C8
:1034D00000009387A7501CCDB765002099472A8428
:1034E0002304F502232E050019469385557613050E
:1034F0009502EF40F05C9307C05D1EB89307300360
:103500002309F40201456FC0FFD0EFC27FCEB16442
:103510002E8493841435EFF0EFFB118915CDFD1443
:1035200085CCEFE01FF22A897DD5AA87814401E886
:10353000CA852685EFE0FFEC01456FC0BFCD322480
:103540004C403E85EF40D0573A240040BA94C20424
:10355000B307E500C180E1BF5155C5B7EFC2BFC792
:10356000B767002083A74773AA891385018C9384CA
:10357000018C82978C40A9C983C7C18B1384018CAD
:1035800093F7F70F81E78547238EF18AC2050D4631
:10359000C1810D454440EF1040402A8915C52A8459
:1035A00032244840A685EF40B0513E240040BE94EE
:1035B00065F8EFE0FFE383A70901CE854A8582978E
:1035C00001C54A85EF1080386FC03FC4EFC25FC2AB
:1035D00041113764002002C202C402C6EF00B06B82
:1035E0001305C473B765002019469385856D1305CF
:1035F0009502EF40F04CB767002003A7C76C938794
:10360000C76C1305C4733AC29847DC433AC43EC63C
:1036100023A0018E23AE018CEF10802B37380000E1
:10362000B7370000740030004C001308084293873D
:10363000674A01471305C473EF10E02341016FC0CF
:103640007FBD9317850021815D8D42054181828078
:103650009317850021815D8D42054181828013573A
:10366000850193178501D98FB706FF0013178500D1
:10367000758FD98F4167130707F02181798D5D8D93
:103680008280EFC2FFB6EFF09FFD6FC0BFB8EFC200
:103690003FB603A4018EAA8401EC03A5C18D11C518
:1036A000EF10602319C103A4C18D22856FC09FB69E
:1036B0002285EF10402205C198309C2022075D8FA3
:1036C000BC20C2075D8FBC30E207D98F5840B98F4C
:1036D0001844F98FF9DB0040C1B7EFC2FFAE40419B
:1036E000AA84AE891C300820A2075D8DEFF05FF63A
:1036F00031814205418191476306F5002685EF102F
:10370000E02431A41C300820A2075D8DEFF05FF4A7
:1037100019813C30137AC5032820A2075D8DEFF094
:103720003FF3BE242A89E3EB47FD9E24E3E8A7FC90
:10373000D2852285EF40E04D71F1CA852685EF10D4
:10374000C039370500F0EFF0DFF3370500E0EFF0A8
:103750005FF34E89054B930B04014A85EF10A017C8
:1037600011E563130B12032909000DA29307490009
:10377000EDDB83264900F5D618381C2822075D8F1B
:103780003C28C2075D8F3C38E207D98F6382F6047C
:10379000CA855E85852E0DED1C38834A04013705E8
:1037A00000F0A207B3E75701834A2401C20AB3E736
:1037B000FA00834A3401E20AB3EAFA00EFF07FEC40
:1037C000B3FAAA00370500E0EFF0BFEBE39BAAF8DD
:1037D00058345C2422075D8F7C24C2075D8F7C34C3
:1037E000E207D98FB9C3CE851305C400212EE31794
:1037F00005F05C34034AC400370500F0A207B3E7C4
:103800004701034AE400420AB367FA00034AF4009E
:10381000620A336AFA00EFF0DFE6337AAA0037056E
:1038200000E0EFF01FE6E30BAAECE30909EC034923
:103830007400682022093369A90011657D15EFF035
:103840005FE03375A90011C526851126AA8461C1E0
:103850004041CE852685EF10403C55E91C340824B4
:10386000A2075D8DEFF0DFDE1375F50F9947630357
:10387000F50AC5476309F50885476312F50ACE8541
:103880002685EF30507A61A003A9018E63143901B7
:1038900003290900014BE31209EC1C340824A20798
:1038A0005D8DEFF0FFDA1375F50FC547631EF50068
:1038B000B3074401A823BC33A2075D8DEFF05FD9A5
:1038C00093074004630DF502854A1C340824A207BF
:1038D0005D8DEFF0FFD71375F50FC5476319F50838
:1038E000229A83473A0003452A00A2075D8DEFF034
:1038F0003FD69307C076631CF5064E893DB7E39823
:1039000009F2814AD9B7CE852685EF30902201454C
:103910006FC01F8FCE852685EF20204CCDBFCE8572
:1039200013050401C522E31B05DC1C38034904010F
:10393000370500F0A207B3E7270103492401420934
:10394000B367F9000349340162093369F900EFF004
:103950005FD33379A900370500E0EFF09FD2E30F82
:10396000A9D8C0C089452685EF40E01041BBE3914E
:103970000AE669B3EFC25F85AA894289630F06121E
:10398000AE8AD1453A8AB284B68B3E8BEF00307551
:1039900079576311051203A44900A20B1C340824B3
:1039A000A2075D8DEFF0DFCA1375F50F3365750162
:1039B000EFF03FC91357850018B408A4EFF05FC9B2
:1039C000218142054181220533656501420541811E
:1039D000EFF03FC798309C2008A422075D8FBC20E1
:1039E000218108B4C2075D8FBC30116513050550F5
:1039F000E207D98F13D787001CA818B813D707017F
:103A0000E1833CB838A83365AA00EFF09FC308A053
:103A1000218108B003D58900138A818CEFF07FC221
:103A200028A0218128B003550A0023030400A30322
:103A30000400EFF01FC183570A0048A021818507C9
:103A400048B02310FA0063810A0203C71A0083C733
:103A50000A0022075D8F83C72A00C2075D8F83C7D4
:103A60003A00E207D98F99E713074900814719C344
:103A70008327490013D787005CA458B413D70701E4
:103A8000E18378A47CB423050400A3050400D14598
:103A90002285EF40001828A4218128B48357090308
:103AA00085C303D7890063FDE7002686CA854E8556
:103AB000AD292A873A856FC0AFF44441C104F9BFEC
:103AC000832749012686CE854A858297DDB7EFC2D6
:103AD0002FF201112A8432852ECE36CC3ACA3EC846
:103AE00032C6EFF0DFBA09CDC2475247E24632464E
:103AF000F2452A882285EFF0FFE705616FC08FF15C
:103B00007155E5BF18311C2122075D8F3C21C2078A
:103B10005D8F3C31E207D98F9386F7FF7557636657
:103B2000D70203C725030145098B0DC3D841630F95
:103B3000F70094453D8F758F11EB13C5F6FFE98FA4
:103B40003385A74013351500828005458280EFC27A
:103B5000AFE744412A899C308820A2075D8DEFF0B1
:103B60003FAF19811375C503D1476312F526FC30A9
:103B7000E820A2075D8DEFF0BFADBC302A8BA820F6
:103B8000A2075D8DEFF0DFAC9C30AA8C8820A207E5
:103B90005D8DEFF0FFAB2A8C4A85EF009079B76717
:103BA000002083A7077203D7A18C2A8D8D832A97C3
:103BB000FD8B9389A18C63ECE72003A4C18C814A1F
:103BC000138AC18C1DE81545EF0030392A84630043
:103BD00005207146814513054400EFC06FE48D4711
:103BE0007CBC83270A0023208A001CC05146A6857E
:103BF00013058400EF40C06C95ACD834DC24220758
:103C00005D8FFC24C2075D8FFC34E207D98F5848D2
:103C10006316F70298389C2822075D8FBC28C207DC
:103C20005D8FBC38E207D98F184C6319F700DC3080
:103C3000D4205A24A207D58F6306F720A28A004019
:103C400051B7CC4203C8550003C34500220833686E
:103C50006800637C060D93D5860094A38CB393D53E
:103C60000601E182ACA3B4B3630E072A74336C235C
:103C7000A206CD8E6364D6146362A814935689009D
:103C80002300270114B3935609011359890134A362
:103C9000A3012701782C014B058B630F0718638D57
:103CA000081858404443D830D4202207558F631554
:103CB000071894339823A206D98EB8234207D98EC9
:103CC000B8336207558F61E75E2C03C90400514683
:103CD000D1075EAC9C30930584002685A207B3E72C
:103CE000270103C924004209B367F90003C934005E
:103CF00062093369F900EF40A05C4A2CEFF07F9431
:103D0000A8A02181A8B023830400A38304002385F5
:103D10000400A3850400D1452685EF30906FA8A448
:103D20002181A8B4032B4400D5A063090609F4310E
:103D300003C36500A206B3E666006361D60801CB43
:103D4000742378332207558F6303E8008148983144
:103D500094212207558FB421C206558FB431E20653
:103D6000D98E2E8765AA935689002300270114B3A4
:103D7000935609011359890134A3A3012701742320
:103D800078332207558FE307E6F0814821B7544383
:103D9000EC23F833DC32D0222207A2074D8FD18FDB
:103DA000631AF7029C329822A207D98FB8224207E1
:103DB000D98FB83262075D8FB68731B74A85EF0079
:103DC000505783D709003385A7402390A9004A851F
:103DD000EF00D037014B8DA0B1554A8583244900AF
:103DE000EF00F02FCA855A85EF0070569C3003C94A
:103DF0000400A207B3E7270103C924004209B367FF
:103E0000F90003C9340062093369F900E31609FCBB
:103E100003270A001C406314E4022320FA00A28551
:103E20001545EF0090155A85EF00B05083D7090073
:103E30003385A7402390A9005A856FC06FBC23A08B
:103E4000FA00F1BFFC30E820896BA2075D8DEFF02E
:103E50003F80FD1B337575014205418101E96A24EC
:103E6000EFF00FFF33757501E31205D883D7090012
:103E70003E9D2390A901FC30E820A2075D8DEFF064
:103E80002FFD9317250163C2070213153B017C2CFC
:103E90004D810E05135C6C006695137CCC0393E793
:103EA0001700330585417CAC4AAC83244900BC3003
:103EB000A820A2075D8DEFF0AFF99C302A8B8820F7
:103EC000A2075D8DEFF0CFF8FC30AA8BE820A207A7
:103ED00093DB6B005D8DEFF0AFF74E054D81131650
:103EE00035003305CB0013FBCB0383274900330593
:103EF000654142051357860041815440D8B313579A
:103F00008500F8B323800700A38007002381070002
:103F1000A3810700D0A3E8A385480147E39306D215
:103F2000E31307E423222401B5B3EFC26FA9032CE6
:103F30004500011132CA03477C00AA8D03456C007D
:103F4000220783DB0503598DAE8CEFF06FF0896695
:103F5000B377D500138ACBFEA146334ADA0283D465
:103F60008D0009677D173EC63379E500B11442091B
:103F7000C20413590901C1800144514D3ACC420A8F
:103F8000135A0A0193163A0093970601C1833EC85B
:103F90009387DBFE3ECE89E4014505616FC00FA625
:103FA000E247A68A337BF900B24733EB6701F24759
:103FB00063C6F400C24A8967336BFB000146D145F2
:103FC0000945EF00901DAA8939C948415146E2854B
:103FD000EF40002F03A64D0083AB49006A9623A251
:103FE000CD0003D6AD00B306A6412395DD00568D66
:103FF00063090D0403D4AD0063738D006A84420429
:10400000418001E483AD0D00E5B7814509460D45CA
:10401000EF00B018AA8511E54E85EF0030137D55ED
:10402000ADBF03A64D0002A522A550C14E85EF00ED
:104030001032B3068D40139D0601135D0D01E3138D
:104040000DFC5A85EFF0EFDF2383AB002181A383C2
:10405000AB0013854A0142054181EFF08FDE2381D9
:10406000AB002181A381AB00D14523850B00A38543
:104070000B005E85EF30F03903A74C0152462385D3
:10408000AB002181A385AB00CE8566850297B38402
:10409000544152994E85C2044209EF00300BC18051
:1040A00013590901228DC5BD3C296389B700B76743
:1040B00000202CA9A309050023AC076482805E2D93
:1040C000184DB306F7002388B60E938627008507A0
:1040D000C207C18356ADBA972388C70E82805A2D76
:1040E0001C4D9306170056ADBA972388B70E8280F1
:1040F0005E2D184D13D68501B306F7002388C60E32
:1041000093861700C206C182BA9613D6050123888A
:10411000C60E93862700C206C182BA9613D68500C2
:104120002388C60E938647008D07C207C18356AD0C
:10413000BA972388B70E828015C15E2D184D1306DD
:1041400030049386170056ADBA97FD562388D70ED4
:104150005E2D6376F60093F6370091E282809386B7
:10416000170056ADBA972388070EDDB7630205180E
:10417000EFC20F880451DD57638904162A8901466E
:10418000930540130145EF005001C8C82A87FD5729
:10419000630D0514BC3899EFBC280546638CC70035
:1041A000F11793F7F70F6377F60083A7C1828507AE
:1041B00023A6F182404303A5C182854780CC88C0F5
:1041C0001CA01CB099473CA0A3010400EFF02FC92C
:1041D0009357850048A05CB09357050161817CA08E
:1041E00068B0804C294723040400A304040023057D
:1041F0000400A305040023060400A306040023070B
:104200000400A3070400BC286388E700F11793F7B4
:10421000F70F0547636EF700834749005CA48347A7
:1042200059005CB4834769007CA4834779007CB45F
:1042300023080400A308040023090400A3090400C0
:10424000230A0400A30A0400230B0400A30B0400A8
:10425000230C0400A30C0400230D0400A30D040090
:10426000834589028147414613970701418381466F
:104270006376B7003307F900834697023307F400EB
:1042800054AF8507E392C7FE1307C4029307C40621
:10429000230007000507E39DE7FE1307C40E2380F4
:1042A00007008507E39DE7FE375582631305353622
:1042B000EFF0EFBA935785002306A40EA306F40E81
:1042C000904C9357050161812307F40EA307A40EB8
:1042D000239E0400814713074004B306F600238899
:1042E000F60E8507E39BE7FE81473E856FB09FF2A0
:1042F000D9573E85828011CDEFB29FEF005101C8A2
:10430000484811C1A125232A0400232C04006FB0C2
:104310007FF0828063000518EFB29FED00516309C2
:1043200004163828A1476315F71698319C212207F7
:104330005D8FBC21C2075D8FBC31E207D98F185455
:104340006398E714AA84B1452285EFF0FFD526854E
:10435000EFF0DFE16319051205469305500322854E
:10436000EFF0FFD591452285EFF07FD711469305F9
:1043700020032285EFF0BFD40854EFF08FB0AA8558
:104380002285EFF0FFD61146930560032285EFF0FA
:104390001FD34850EFF0EFAEAA852285EFF05FD52E
:1043A0001D469305D0032285EFF07FD15E2C184C7B
:1043B00005462285B306F7002388C60E138627001C
:1043C0004206418252AC9386170083C59402C2060E
:1043D000C182BA962388B60E93863700C206C18280
:1043E00056AC83C5A4023A96BA962308B60E138635
:1043F00047004206418252AC83C5B4023A962388F4
:10440000B60E93865700C206C18256AC83C5C4025D
:10441000BA962308B60E138667004206418252AC54
:1044200083C5D4029D0732972388B60E5EAC83C73E
:10443000E4022308F70EEFF03FD04E2C4848938556
:10444000050FC205C181512D034784021C4C4C4805
:104450004840D8A70347940203A94400D8B70347AC
:10446000A402930630041386C185F8A70347B4025B
:10447000F8B723A204002687EF30C018268523A2B0
:104480002401EFF05FE73C3885073CB885477EACF8
:104490006FB05FD88280EFB2BFD51128BD24B76757
:1044A000002083A7476B91C382976FB0BFD6375761
:1044B00000201307F735719B23AAE18CB767002012
:1044C00083A78771231107008D07F19B939607013E
:1044D000C182BA9716A32302070023ACF18C0546CC
:1044E000D0A396A3B6A323A8E18C828049C183A759
:1044F000418D636EF50683A5818D637AB50683A62B
:10450000018D130685FF230E05FE1387018D63734E
:10451000D60010C3835685FFBE966304D60203C837
:10452000460063100802638ED5000C436393B60007
:1045300010C38E22231CB5FE9622B305F640BE960C
:10454000AEA28355A5FFB386B7006302D60203C8A7
:104550004600631E0800032807006313060114C306
:10456000035785FF9AA2035785FFBA97AEA38280AF
:104570008D05C205C181F199C205C1813147AE8760
:1045800063F3E500B1473767002003268771C20750
:10459000C1830D06719A6360F60A03A7418D636DAE
:1045A000E50883A6818D6379D508930685FF835836
:1045B00085FF998EC206C182938588FF958DC205BD
:1045C000C18163EAF5066389F506330317010348E1
:1045D000430063140802938586001388018DAE970B
:1045E000032E0800C207C18383580300B305F700F8
:1045F00063166E022320B80015A01388470163EDEF
:10460000050393858600AE971388018DC2070323A7
:104610000800C183B305F700E3EE65FC23901501A4
:10462000B6A123820500231CF5FE96216306D60061
:1046300036973EA382800145828039C51307350035
:1046400042074183719B42074183B146BA87637336
:10465000D700B1473767002003268771C207C1839F
:104660000D06719A01456362F60203A7018D83AEC0
:10467000418D9385018D3303F640B306D741C206C1
:10468000C182615E63E46600014582803385DE009D
:104690000348450083580500631708063308DE40C9
:1046A00046986362F8061383470163626804A107B2
:1046B000B697C207C1833388FE0023101801231167
:1046C000D8002302080085461EA154A18356080085
:1046D0006304D600F696BEA26319A70083A6818D57
:1046E0008147502301EE91C398C1210582808547FF
:1046F0005CA1DDB71A2385477697E5B7E39CE6FE14
:10470000EDD794C1DDB7C686B5BF83A5418383A627
:104710008183B76700209387B79C37670020F19BA0
:10472000130747771385060103D8050023200700E8
:1047300001466318C800890611078905E396A6FE9D
:104740008280832807000506420623A0170183D82C
:1047500006001CC34182C697E9BF9D4763EDA700D1
:10476000B76700200A0593874777AA97884309C54A
:10477000184198C382800145828099C9931725000A
:1047800037650020130545773E951C419CC10CC13F
:104790008280EFB25FA498319C21AA8422075D8FAA
:1047A000BC212E84C2075D8FBC31E207D98F5841EE
:1047B000639FE70018301C2022075D8F3C20C20752
:1047C0005D8F3C30E207D98FDCC06FB01FA403A51A
:1047D000C18E01499309400605C11841DC40032AF6
:1047E000C5006311F7048545EF00F0119307190028
:1047F00093F7F70F63F7290383A7418FC5DF98432A
:1048000019CFD440631DD70014301820A206D98ECA
:1048100038204207D98E38306207558F98C3DC475D
:10482000F1BF3E8952854DBFEFB29F9C411132C608
:1048300036C42A84EFF0FFF53246A246814719CAF2
:1048400018321C2222075D8F3C22C2075D8F3C324A
:10485000E207D98F1CC4814799CA98329C2222074B
:104860005D8FBC22C2075D8FBC32E207D98F5CC46A
:1048700041016FB03F9AEFB2BF9758CD1387418E79
:104880008348070041112322050023240500232625
:104890000500230905022320050213831800A30A3B
:1048A0001503232805012A843EC623006700EFF084
:1048B000BFF7B2472285829711E99387018E98430B
:1048C00018C080C3228541016FB0DF940144DDBF71
:1048D00023AEA18C82800345250305898280AA87A7
:1048E0000145A5C5BDC3139605014182328863DB2E
:1048F00005003308C040BA2742081358080105458F
:1049000063650705D427D84381C60D456391A60288
:104910000D8F9386070105456369D702D8C3BA276F
:1049200001453297BAA79A273A9692A78280FD1638
:10493000C206C1828548054563E9D80063D70500F2
:10494000B62763E406010D8FD1BF8280EFB2BF8826
:1049500001440DCDAA8501440D498549FE25FD1769
:10496000C207C183FEA59DE3DC2584411D45638804
:104970002701FD17C207C18363EDF9001945EFF068
:10498000DFDF05041374F40FA685E9F822856FB004
:10499000DF872E85EFF09FB5EDB7EFB2DF83854758
:1049A000630DF50031C589476306F5048D4763053E
:1049B000F504014422856FB05F858144D104B904B8
:1049C000C204C1808947B2892E8963E9C70279CAC6
:1049D0001945EFF09FD82A8469DD232205002314AE
:1049E0002501231525012320050023063501B5A047
:1049F000D144E9B78144E1B78144E9B78D47014427
:104A0000E31AF6FA1D45EFF05FD52A845DD1B307AE
:104A10009500CD07F19B376700205CC193070771B4
:104A2000DC438D04F19893879703F19B23063501AE
:104A30002320050023142501B384974093090771AF
:104A400063739900CA84854726A47EA4B304994061
:104A50000D4A2289854A6347900085477EA4A306B4
:104A6000040089BF1D45EFF05FCF09E52285EFF017
:104A7000FFED81B783A749002316450123200500D8
:104A80002320A9009387970306A5F19B63F3F40005
:104A9000A687130705013EA558C1231755019D8C14
:104AA0002A8955BF9387350013853401F19B71998D
:104AB0003E9542054181EFF05FB82A84E30B05EE95
:104AC000AA94CD04F19844C123142501231525018E
:104AD000232005002306050049B71E2563FAF504C7
:104AE000EFB20FF12A84AE84B387F5402E2463E938
:104AF00095025C2481EF638B95004C402285818D6B
:104B0000A695C205C181EFF0BFA62A84084026A45D
:104B100006A419C1EFF09FE3232004006FB08FEFCC
:104B20001A248D8CC2043E971AA4C18000407DBF18
:104B30008280814719E13E858280850793F7F70FD0
:104B40000841CDBF01C57E2585077EA5828009CDA0
:104B500099E182803A859E2516251841B697C207AD
:104B6000C1831EA565FB0CC18280EFB26FE82E8465
:104B7000EFF0FFFD2285EFF0FFFC6FB0AFE93DCD18
:104B8000EFB26FE52A84AE845955ADC51A249E252F
:104B90006362F7060149014A8359A400BE24B38920
:104BA0004941B387274163C9F904939907014840F4
:104BB000CC4093D909015295CA954E86EF3040708A
:104BC0004E9A3E24420A4E994209135A0A01135939
:104BD0000901639447010040014ABE246365F9005E
:104BE000844099CC0149BA249E246316F7029C4064
:104BF0009DC35D556FB06FE1C20955BF59558280A5
:104C000009C801493A241E246314F7001C40F5F337
:104C1000C1F40145C5B77DF441B7EFB2CFDB03293D
:104C20004500AA898347990003458900014AA207E4
:104C30005D8DEFE0FFA1937AF50F03A4818E31091A
:104C40009384818E01E401456FB02FDC1C2801455F
:104C5000639457035C488DC3084CCA864E86A28570
:104C6000829719C963080A005C442326FA009C4015
:104C700080C05CC4054581495C44228A71F53E844C
:104C8000D1B7814799C998319C2122075D8FBC21FA
:104C9000C2075D8FBC31E207D98F1CC101458280FC
:104CA000814799C998319C2122075D8FBC21C20799
:104CB0005D8FBC31E207D98F5CC1014582804CC950
:104CC00010CD8280EFB2CFD2AA840145EFF0FFA8C9
:104CD0002A8411CD71468145EFB08FD4930700F837
:104CE0003CB49387818E984304A880C358C422851E
:104CF0006FB04FD283A6C18E03A6019083A5418FCA
:104D000003D5018493870184130715001315070148
:104D1000131807014181635308000565368719E7B9
:104D2000328719EB2E8719EF8AA382800358C701B7
:104D3000E30CA8FC5847E5B70358C701E306A8FCF5
:104D40005847C5B70358C701E300A8FC5847E1BF5F
:104D50001C4963960710EFB20FC84111AA84328430
:104D600011E62EC6EFF01FF9B2452A8403A7418F42
:104D700031E703A7C18E25EB83A9018F1389018F2A
:104D80004E8759E783A70190CDEB85C198319C21CF
:104D900022075D8FBC21C2075D8FBC31E207D98F2E
:104DA00089C711462685EF30A051C2AC23A6340135
:104DB00023209900014541016FB02FC55E2F6392FA
:104DC0008702104359CED1CD94319C21A206DD8EAD
:104DD000BC21C207DD8EBC31E207D58FD9C3630287
:104DE000F608584771B75E2F63928702104335CAA1
:104DF000ADC994319C21A206DD8EBC21C207DD8E97
:104E0000BC31E207D58FB1CF630DF6045847A5B783
:104E10005E2F63928702104329C6A1C594319C215D
:104E2000A206DD8EBC21C207DD8EBC31E207D58F24
:104E30008DCB6308F6025847A9B7DA2F631F8700A6
:104E400094319821A206D98EB8214207D98EB83163
:104E50006207558F94436386E600DC4735B74D55AE
:104E60008280555589BFAA870358C5021459D23B81
:104E70000C5583D807043305D84005822E95328718
:104E800063F3C8004687420741833307E540634523
:104E900007002397070382803387D5406356E000DD
:104EA00023970702014582808D8EF6B7E5BFEFB2EA
:104EB0002FB45E352A84BE95C2055E39C1814EB5D8
:104EC00063F3B7005EB52285EFF0FFF95E388983A2
:104ED000634BF50083476402228593E72700230391
:104EE000F402EF1030706FB0EFB2EFB26FB041115B
:104EF000014409CDAA854841014411C52EC6EFF0F1
:104F0000FFA4B2452A841145EFF03F872285410175
:104F10006FB04FB0EFB2CFAD014401E522856FB065
:104F20006FAF0441EFF07FFC2A941374F40F2685D1
:104F3000EDB7EFB2EFAB41112AC61145EFF0FF819B
:104F40002A8401C9B2455146EF3080374840EFF01E
:104F50007FBF228541016FB0EFAB0CCD8280232E45
:104F6000B50882801C4905476374F70429476381AB
:104F7000E704EFB2EFA72A840325850809C5EFF0FF
:104F8000FF9C2324040803254408FD577EBCEFF052
:104F90007FF8685C23220408EFF0DFF7032504089C
:104FA000EFF05FF7232E0406232004086FB08FA6CE
:104FB0008280EFB2EFA31C412E846390B704DC45DE
:104FC0001CC1232604002285EFF0DFF91C48294785
:104FD0006381E7020547638EE7008347640213F7A6
:104FE000170001CB93E727002303F4022285EF107B
:104FF000705F232804006FB0EFA123AEF18E8146CD
:105000001387C18F89E7D5DE232007005DBFD04716
:105010006317860091C21CC35844D8C75DB7854644
:10502000B287CDB71C491D476365F70AEFB24F9CA5
:1050300029678A07130787C8BA979C432A848287FF
:10504000EFD07FBF1387018F1C43639987005C44B7
:105050001CC323260400A28509453DA823AEF18E7A
:1050600081461387C18F89E7EDD623200700D5B786
:10507000D0476317860091C21CC35844D8C7D1BF1C
:105080008546B287CDB7EFD01FBBA2851385418F70
:10509000EFF03FF2A2850D45EFF02FEE014531A86C
:1050A000EFD07FB9A2851385C18EEFF09FF065B771
:1050B0008545EF10D04A954701C96FB0AF9585453A
:1050C000EF10F0497DF9A5471CC82285EF109051DB
:1050D000F1B701458280EFB2AF9141112E8511CE1B
:1050E0000E2632C6EFF0BFDC32463285EFF01F8667
:1050F00081473E8541016FB0EF918147FDFAEFF0A6
:105100007FF2AA87FDB7EFB22F8C1849A94741114A
:105110002A84631EF700AA8513850190EFF07FE9CA
:10512000A2850945EFF06FE541016FB06F8D1C411D
:105130002E8B032905063EC65C4183298502035A4E
:10514000C5013EC4835A45028324C509832B8501CA
:10515000EFD07FAE1385C18EA285EFF09FE50325CA
:10516000040819C1EFF01FDB685C19C1EFF09FDA8A
:105170000325440819C1EFF0FFD9A2850945EFF0D6
:10518000CFDF81C4ED555E858294E30F0BF8D6879F
:10519000528734007000CE854A85EF10307B69B7A6
:1051A0009387C183884303A7818F3A9588C3828000
:1051B000EFB26F822A890945EFF02FDAB764002039
:1051C000938404712A8425E19C488983858B89E72F
:1051D000014422856FB06F8383A7019003A6818F5E
:1051E000014581469389818FF1E701C58545EFF03F
:1051F0009FF10945EFF06FD62A8415E583A7C18E8C
:1052000003A509007D191379F90F1306F0078145ED
:10521000DDEB09C485452285EFF0FFEE0945EFF08F
:10522000CFD32A8455D51306400B81452285EFA0A4
:105230003FFF930700045CA89C44231C040613074B
:105240008021231BF4065E385EB47EB4E1773EA471
:10525000DC406374F700930780212310F404C167D6
:105260007D577CC485472318F4047ABC231DF404BD
:10527000EFF01FF383A7818F68D428D01CDCB757C9
:1052800000009387670D2328F408B767002003A761
:10529000076C9387076C68C82320E40AD8439C47AF
:1052A00028D8230E04022322E40A2324F40AA308A4
:1052B000040A05B7985F3307E6406364D700BA86EF
:1052C0003E85DC4715B7D42B636CD900636AD600E2
:1052D000985F3307E5406365B7003686BA853E843C
:1052E000DC473DB7EFA2DFF013050004EFF05FEC01
:1052F0006FA05FF2EFA2DFEF2A842E85EFE02FB9D7
:1053000011CD1E3981CF938787FD3E87C207C183A8
:105310006373F400228713140701418022856FA074
:105320007FEFEFA25FEB1C49AA842E8AC827DC37E7
:10533000A2075D8DEFE0CFB1058929E94169130925
:1053400009FC03270A0103A68191DE2454334C2370
:10535000B297A206D58D7423C206CD8E6C33E205BA
:10536000D58D8356CA00AE96B386D74063D5060264
:105370008D8F6359F000918DC205C840C181CEA4C4
:10538000EFF0AFF523A044016FA03FE85285EFF0A6
:105390007FB8014AC5BF5C374827A2075D8DEFE0A3
:1053A0002FAB058915CD9C48C037C8272204498CEE
:1053B0004A85EFE00FA99C48698CC827DC37A20713
:1053C0005D8DEFE0EFA81375E50313651500EFE0C1
:1053D0004FA79C48418D42054181C8A72181C8B78C
:1053E00003240A005285EFF05FB045D4228A91BFB2
:1053F000EFA29FDD83C781902A84C18B938981911D
:10540000F1C783A509003855835645067055330505
:10541000B74083A74190938441906344050263168B
:10542000B7003307F640634E0700631EF60203A57C
:10543000019278350348E50022073367070163F4DA
:10544000E60203A5019278350348E5002CD4220733
:10545000336707012312E4067CD411C70347040B0A
:1054600019C32308040A6C483387B7406342E02E0F
:1054700003D74192231A04066319072C03574406E5
:105480006854B2962A976312D72C0317E403634E2D
:10549000072A639CF52A834784050D47850793F700
:1054A000F70F230CF404637CF7280357A4058357F4
:1054B0000404BA97C207C1836374F700231DF40480
:1054C0007C5C639F073A7040631A064403D641929E
:1054D00083A709001454138A4192E3000604B3859C
:1054E000F6401387F5FF634B074A05471D8F118F61
:1054F00036976345E04A3769002093074979C443EA
:10550000139705014183BE241309497963D3B74832
:105510009E24998FC207C183BA246346B746B30558
:10552000B040C205C1852685EFF06FBBDC408356D5
:10553000C90003A709002324F9001C5436971D8FC6
:105540002316E9000327090193D6870023A0F90059
:105550005CA354B393D60701E18374A37CB383A601
:1055600009001854B387E64063C907005234938793
:105570001600998F918F6350F044B767002083A77E
:10558000477AC827DC37A2075D8DEFE06F8C05896D
:1055900063010578185483A70900631CF776B76484
:1055A0000020938A447983A70A0103D9CA0093840F
:1055B0004479C827DC37A2075D8DEFE06F890D893C
:1055C0003335A0002A9983A70A014209135909011A
:1055D00023102A01C827DC37A2075D8DEFE04F8733
:1055E0000589631C053E5E3463F0270B9C48C82781
:1055F000DC37A2075D8DEFE0AF85058931C19C489E
:1056000003C9D700C82722093369A90041651305DA
:1056100005FCEFE00F839C483379A900C827DC37ED
:10562000A2075D8DEFE0CF821375E503EFE06F8198
:105630009C483365A90042054181C8A72181C8B7AC
:105640005E34DEA49C48C827DC37A2075D8DEFE0FE
:105650002F80098901C5DE24FD17DEA4CE24C840B1
:10566000EFF0AFC79C4803D9C400C827DC37A207B6
:105670005D8DEFD0FFFD0D893335A0002A994209D9
:105680001359090123102A0183274408638407362C
:105690009C48C827DC37A2075D8DEFD07FFB0589CA
:1056A00063170534032B4408C16B938B0BFC03A5D4
:1056B000090003570A002A9763000B0803260B0111
:1056C0004C325422A205D58D7422C206D58D743277
:1056D000E206CD8E8355CB00B695B305B74063D2B5
:1056E0000536158F635AE00483274408984B5C33D2
:1056F0005423A207D58F898FDEA49C48C827DC37A6
:10570000A2075D8DEFD0DFF4098901C5DE24FD1706
:10571000DEA4CE24C840EFF04FBC9C4883DAC4001E
:10572000C827DC37A2075D8DEFD09FF20D89333596
:10573000A000AA9A23105A012322640965ACE391C0
:10574000E7D82285EF10D038A5BB230C04048DBB0D
:105750003450B386D7406342D0128346640213F6B6
:10576000460001CAED9A2303D4028356C405231DC3
:10577000D4048316C4040356E40442078D86B2960B
:105780002318D404835664074183231AE40636970A
:10579000231BE40618487CC823090404230C0404D2
:1057A0008D4763F1E7020357A4058356C405835769
:1057B00004046376D702BA97C207C1836374F70003
:1057C000231DF4048327040885E383270408230E9C
:1057D000040293B71700B307F0407EBCD5B1B3877E
:1057E000F702B3C7E702C1BF984B48335C232205D9
:1057F0005D8D7C23C207C98F683362055D8DEFD054
:105800005FE8832704082A8903DAC7009C4BC8276E
:10581000DC37A2075D8DEFD0BFE39C400D893335A7
:10582000A00052953309F9404A95E340A0FA0329B4
:105830000408832709002320F4088357440785C3FD
:1058400083270901C827DC37A2075D8DEFD05FE011
:10585000058911C583574407FD17231AF40603254C
:105860004900EFF00FAD835784073385A740231C11
:10587000A4064A85EFF06FE7B1B7231A040689B191
:10588000984B03A9040048335C2322055D8D7C23DB
:10589000C207C98F683362055D8DEFD09FDE7C5CE7
:1058A000AA8A3309594103DAC7009C4BC827DC3761
:1058B000A2075D8DEFD0DFD90D893335A000529559
:1058C0003309A940E34109C09C403850998FE34C0B
:1058D000F0BE0329C407832709007CDC83574407F3
:1058E00085C383270901C827DC37A2075D8DEFD068
:1058F0003FD6058911C583574407FD17231AF406BF
:1059000003254900EFF0EFA2835784073385A740B2
:10591000231CA4064A85EFF04FDD5DB63C44984059
:10592000998FE3D507BA8316C40403D7818F420643
:1059300093D536404182C205C181B307C7408D8FE0
:10594000C207C18313950701B697C207C187418576
:105950002316F40463570500198E2E9613150601BD
:1059600041858316E4048D872322040413D726403F
:105970003387E6402A9742074183BA972317E40406
:105980002318F404A1B69EA423950400998D8440A5
:1059900061B63307E0409315070169B6958FE3D0F0
:1059A00007BC83476402228593E727002303F402A0
:1059B000EF1040436DB6E384E6BE2285EF10803BD6
:1059C000832444086394041E376500201305457939
:1059D000EFF02FD62322A408C1AA7D19420913593A
:1059E000090111B11C412322F408EFF00FD0032567
:1059F00044086DF903A7090083570A002285BA9766
:105A00001CD45E343389274123162403EFF0AFC53D
:105A1000DC409A2709C723A8F19023A204009C48E0
:105A2000C827DC37A2075D8DEFD09FC2058919C555
:105A30009387419198231367070298A3914A1D4BBE
:105A400039AA5C364826A2075D8DEFD07FC0058954
:105A500035C59C48C827DC37A2075D8DEFD05FBFF6
:105A6000098929ED9C4883CAD700C827A20AB3EA4E
:105A7000AA005E85EFD0FFBC9C48B3FAAA00C827F5
:105A8000DC37A2075D8DEFD0BFBC1375E50313654E
:105A90001500EFD01FBB33E5AA009C4842054181A9
:105AA00013578500C8A7D8B783DAC400EFD05FBA10
:105AB0000D893335A000AA9A23105A01832A0B00BE
:105AC0005A85EFF08FC2568BDDB623A0F9005C3704
:105AD000482783DBC400A2075D8DEFD07FB71C543D
